{
  "abi": [
    {
      "anonymous": false,
      "inputs": [
        {
          "indexed": true,
          "internalType": "address",
          "name": "sender",
          "type": "address"
        },
        {
          "indexed": false,
          "internalType": "uint256",
          "name": "feeAmount",
          "type": "uint256"
        }
      ],
      "name": "FeeTaken",
      "type": "event"
    },
    {
      "anonymous": false,
      "inputs": [
        {
          "indexed": true,
          "internalType": "address",
          "name": "sender",
          "type": "address"
        },
        {
          "indexed": true,
          "internalType": "address",
          "name": "recipient",
          "type": "address"
        },
        {
          "indexed": false,
          "internalType": "uint256",
          "name": "amount",
          "type": "uint256"
        }
      ],
      "name": "FundsLocked",
      "type": "event"
    },
    {
      "anonymous": false,
      "inputs": [
        {
          "indexed": true,
          "internalType": "address",
          "name": "recipient",
          "type": "address"
        },
        {
          "indexed": false,
          "internalType": "uint256",
          "name": "amount",
          "type": "uint256"
        }
      ],
      "name": "FundsUnlocked",
      "type": "event"
    },
    {
      "constant": true,
      "inputs": [],
      "name": "feePercentage",
      "outputs": [
        {
          "internalType": "uint256",
          "name": "",
          "type": "uint256"
        }
      ],
      "payable": false,
      "stateMutability": "view",
      "type": "function"
    },
    {
      "constant": true,
      "inputs": [],
      "name": "getBalance",
      "outputs": [
        {
          "internalType": "uint256",
          "name": "",
          "type": "uint256"
        }
      ],
      "payable": false,
      "stateMutability": "view",
      "type": "function"
    },
    {
      "constant": false,
      "inputs": [],
      "name": "lockFunds",
      "outputs": [],
      "payable": true,
      "stateMutability": "payable",
      "type": "function"
    },
    {
      "constant": false,
      "inputs": [
        {
          "internalType": "address",
          "name": "recipient",
          "type": "address"
        },
        {
          "internalType": "uint256",
          "name": "amount",
          "type": "uint256"
        }
      ],
      "name": "unlockFunds",
      "outputs": [],
      "payable": false,
      "stateMutability": "nonpayable",
      "type": "function"
    }
  ],
  "evm": {
    "bytecode": {
      "linkReferences": {},
      "object": "6080604052600160005534801561001557600080fd5b5061047d806100256000396000f3fe60806040526004361061005b577c0100000000000000000000000000000000000000000000000000000000600035046312065fe081146100605780638a75eb0414610087578063a001ecdd146100cf578063fa9befda146100e4575b600080fd5b34801561006c57600080fd5b506100756100ec565b60408051918252519081900360200190f35b34801561009357600080fd5b506100cd600480360360408110156100aa57600080fd5b5073ffffffffffffffffffffffffffffffffffffffff81351690602001356100f1565b005b3480156100db57600080fd5b506100756102a9565b6100cd6102af565b303190565b60008111610149576040805160e560020a62461bcd02815260206004820181905260248201527f416d6f756e74206d7573742062652067726561746572207468616e207a65726f604482015290519081900360640190fd5b30318111156101a2576040805160e560020a62461bcd02815260206004820152601d60248201527f496e73756666696369656e7420636f6e74726163742062616c616e6365000000604482015290519081900360640190fd5b60405160009073ffffffffffffffffffffffffffffffffffffffff84169083908381818185875af1925050503d80600081146101fa576040519150601f19603f3d011682016040523d82523d6000602084013e6101ff565b606091505b5050905080610258576040805160e560020a62461bcd02815260206004820152601660248201527f556e6c6f636b207472616e73666572206661696c656400000000000000000000604482015290519081900360640190fd5b60408051838152905173ffffffffffffffffffffffffffffffffffffffff8516917f7e187bf56d23cc278139f36660c1b9c56739b0518009319e389d2c33f7acc7d3919081900360200190a2505050565b60005481565b60003411610307576040805160e560020a62461bcd02815260206004820181905260248201527f416d6f756e74206d7573742062652067726561746572207468616e207a65726f604482015290519081900360640190fd5b60006103e860005434028161031857fe5b6040519190049150348290039060009073ead2ce0f1d6d129e55a9485416ce46d67336a82e9084908381818185875af1925050503d8060008114610378576040519150601f19603f3d011682016040523d82523d6000602084013e61037d565b606091505b50509050806103d6576040805160e560020a62461bcd02815260206004820152601360248201527f466565207472616e73666572206661696c656400000000000000000000000000604482015290519081900360640190fd5b604080518381529051339182917f01f89d10e75347e927ff82e0827cc9f3e38cdc0a300e9bfc4f518f53ed4a5f4a9181900360200190a360408051848152905133917f1b02d16d3c4c6fce038de5403c8352eb1eb62bc6915b6848683de52a24a723f8919081900360200190a250505056fea265627a7a723158207650dec04c22660721c00db6c5aba870669aaa986a95ad0e5ef5f8d8f601a87264736f6c63430005100032",
      "opcodes": "PUSH1 0x80 PUSH1 0x40 MSTORE PUSH1 0x1 PUSH1 0x0 SSTORE CALLVALUE DUP1 ISZERO PUSH2 0x15 JUMPI PUSH1 0x0 DUP1 REVERT JUMPDEST POP PUSH2 0x47D DUP1 PUSH2 0x25 PUSH1 0x0 CODECOPY PUSH1 0x0 RETURN INVALID PUSH1 0x80 PUSH1 0x40 MSTORE PUSH1 0x4 CALLDATASIZE LT PUSH2 0x5B JUMPI PUSH29 0x100000000000000000000000000000000000000000000000000000000 PUSH1 0x0 CALLDATALOAD DIV PUSH4 0x12065FE0 DUP2 EQ PUSH2 0x60 JUMPI DUP1 PUSH4 0x8A75EB04 EQ PUSH2 0x87 JUMPI DUP1 PUSH4 0xA001ECDD EQ PUSH2 0xCF JUMPI DUP1 PUSH4 0xFA9BEFDA EQ PUSH2 0xE4 JUMPI JUMPDEST PUSH1 0x0 DUP1 REVERT JUMPDEST CALLVALUE DUP1 ISZERO PUSH2 0x6C JUMPI PUSH1 0x0 DUP1 REVERT JUMPDEST POP PUSH2 0x75 PUSH2 0xEC JUMP JUMPDEST PUSH1 0x40 DUP1 MLOAD SWAP2 DUP3 MSTORE MLOAD SWAP1 DUP2 SWAP1 SUB PUSH1 0x20 ADD SWAP1 RETURN JUMPDEST CALLVALUE DUP1 ISZERO PUSH2 0x93 JUMPI PUSH1 0x0 DUP1 REVERT JUMPDEST POP PUSH2 0xCD PUSH1 0x4 DUP1 CALLDATASIZE SUB PUSH1 0x40 DUP2 LT ISZERO PUSH2 0xAA JUMPI PUSH1 0x0 DUP1 REVERT JUMPDEST POP PUSH20 0xFFFFFFFFFFFFFFFFFFFFFFFFFFFFFFFFFFFFFFFF DUP2 CALLDATALOAD AND SWAP1 PUSH1 0x20 ADD CALLDATALOAD PUSH2 0xF1 JUMP JUMPDEST STOP JUMPDEST CALLVALUE DUP1 ISZERO PUSH2 0xDB JUMPI PUSH1 0x0 DUP1 REVERT JUMPDEST POP PUSH2 0x75 PUSH2 0x2A9 JUMP JUMPDEST PUSH2 0xCD PUSH2 0x2AF JUMP JUMPDEST ADDRESS BALANCE SWAP1 JUMP JUMPDEST PUSH1 0x0 DUP2 GT PUSH2 0x149 JUMPI PUSH1 0x40 DUP1 MLOAD PUSH1 0xE5 PUSH1 0x2 EXP PUSH3 0x461BCD MUL DUP2 MSTORE PUSH1 0x20 PUSH1 0x4 DUP3 ADD DUP2 SWAP1 MSTORE PUSH1 0x24 DUP3 ADD MSTORE PUSH32 0x416D6F756E74206D7573742062652067726561746572207468616E207A65726F PUSH1 0x44 DUP3 ADD MSTORE SWAP1 MLOAD SWAP1 DUP2 SWAP1 SUB PUSH1 0x64 ADD SWAP1 REVERT JUMPDEST ADDRESS BALANCE DUP2 GT ISZERO PUSH2 0x1A2 JUMPI PUSH1 0x40 DUP1 MLOAD PUSH1 0xE5 PUSH1 0x2 EXP PUSH3 0x461BCD MUL DUP2 MSTORE PUSH1 0x20 PUSH1 0x4 DUP3 ADD MSTORE PUSH1 0x1D PUSH1 0x24 DUP3 ADD MSTORE PUSH32 0x496E73756666696369656E7420636F6E74726163742062616C616E6365000000 PUSH1 0x44 DUP3 ADD MSTORE SWAP1 MLOAD SWAP1 DUP2 SWAP1 SUB PUSH1 0x64 ADD SWAP1 REVERT JUMPDEST PUSH1 0x40 MLOAD PUSH1 0x0 SWAP1 PUSH20 0xFFFFFFFFFFFFFFFFFFFFFFFFFFFFFFFFFFFFFFFF DUP5 AND SWAP1 DUP4 SWAP1 DUP4 DUP2 DUP2 DUP2 DUP6 DUP8 GAS CALL SWAP3 POP POP POP RETURNDATASIZE DUP1 PUSH1 0x0 DUP2 EQ PUSH2 0x1FA JUMPI PUSH1 0x40 MLOAD SWAP2 POP PUSH1 0x1F NOT PUSH1 0x3F RETURNDATASIZE ADD AND DUP3 ADD PUSH1 0x40 MSTORE RETURNDATASIZE DUP3 MSTORE RETURNDATASIZE PUSH1 0x0 PUSH1 0x20 DUP5 ADD RETURNDATACOPY PUSH2 0x1FF JUMP JUMPDEST PUSH1 0x60 SWAP2 POP JUMPDEST POP POP SWAP1 POP DUP1 PUSH2 0x258 JUMPI PUSH1 0x40 DUP1 MLOAD PUSH1 0xE5 PUSH1 0x2 EXP PUSH3 0x461BCD MUL DUP2 MSTORE PUSH1 0x20 PUSH1 0x4 DUP3 ADD MSTORE PUSH1 0x16 PUSH1 0x24 DUP3 ADD MSTORE PUSH32 0x556E6C6F636B207472616E73666572206661696C656400000000000000000000 PUSH1 0x44 DUP3 ADD MSTORE SWAP1 MLOAD SWAP1 DUP2 SWAP1 SUB PUSH1 0x64 ADD SWAP1 REVERT JUMPDEST PUSH1 0x40 DUP1 MLOAD DUP4 DUP2 MSTORE SWAP1 MLOAD PUSH20 0xFFFFFFFFFFFFFFFFFFFFFFFFFFFFFFFFFFFFFFFF DUP6 AND SWAP2 PUSH32 0x7E187BF56D23CC278139F36660C1B9C56739B0518009319E389D2C33F7ACC7D3 SWAP2 SWAP1 DUP2 SWAP1 SUB PUSH1 0x20 ADD SWAP1 LOG2 POP POP POP JUMP JUMPDEST PUSH1 0x0 SLOAD DUP2 JUMP JUMPDEST PUSH1 0x0 CALLVALUE GT PUSH2 0x307 JUMPI PUSH1 0x40 DUP1 MLOAD PUSH1 0xE5 PUSH1 0x2 EXP PUSH3 0x461BCD MUL DUP2 MSTORE PUSH1 0x20 PUSH1 0x4 DUP3 ADD DUP2 SWAP1 MSTORE PUSH1 0x24 DUP3 ADD MSTORE PUSH32 0x416D6F756E74206D7573742062652067726561746572207468616E207A65726F PUSH1 0x44 DUP3 ADD MSTORE SWAP1 MLOAD SWAP1 DUP2 SWAP1 SUB PUSH1 0x64 ADD SWAP1 REVERT JUMPDEST PUSH1 0x0 PUSH2 0x3E8 PUSH1 0x0 SLOAD CALLVALUE MUL DUP2 PUSH2 0x318 JUMPI INVALID JUMPDEST PUSH1 0x40 MLOAD SWAP2 SWAP1 DIV SWAP2 POP CALLVALUE DUP3 SWAP1 SUB SWAP1 PUSH1 0x0 SWAP1 PUSH20 0xEAD2CE0F1D6D129E55A9485416CE46D67336A82E SWAP1 DUP5 SWAP1 DUP4 DUP2 DUP2 DUP2 DUP6 DUP8 GAS CALL SWAP3 POP POP POP RETURNDATASIZE DUP1 PUSH1 0x0 DUP2 EQ PUSH2 0x378 JUMPI PUSH1 0x40 MLOAD SWAP2 POP PUSH1 0x1F NOT PUSH1 0x3F RETURNDATASIZE ADD AND DUP3 ADD PUSH1 0x40 MSTORE RETURNDATASIZE DUP3 MSTORE RETURNDATASIZE PUSH1 0x0 PUSH1 0x20 DUP5 ADD RETURNDATACOPY PUSH2 0x37D JUMP JUMPDEST PUSH1 0x60 SWAP2 POP JUMPDEST POP POP SWAP1 POP DUP1 PUSH2 0x3D6 JUMPI PUSH1 0x40 DUP1 MLOAD PUSH1 0xE5 PUSH1 0x2 EXP PUSH3 0x461BCD MUL DUP2 MSTORE PUSH1 0x20 PUSH1 0x4 DUP3 ADD MSTORE PUSH1 0x13 PUSH1 0x24 DUP3 ADD MSTORE PUSH32 0x466565207472616E73666572206661696C656400000000000000000000000000 PUSH1 0x44 DUP3 ADD MSTORE SWAP1 MLOAD SWAP1 DUP2 SWAP1 SUB PUSH1 0x64 ADD SWAP1 REVERT JUMPDEST PUSH1 0x40 DUP1 MLOAD DUP4 DUP2 MSTORE SWAP1 MLOAD CALLER SWAP2 DUP3 SWAP2 PUSH32 0x1F89D10E75347E927FF82E0827CC9F3E38CDC0A300E9BFC4F518F53ED4A5F4A SWAP2 DUP2 SWAP1 SUB PUSH1 0x20 ADD SWAP1 LOG3 PUSH1 0x40 DUP1 MLOAD DUP5 DUP2 MSTORE SWAP1 MLOAD CALLER SWAP2 PUSH32 0x1B02D16D3C4C6FCE038DE5403C8352EB1EB62BC6915B6848683DE52A24A723F8 SWAP2 SWAP1 DUP2 SWAP1 SUB PUSH1 0x20 ADD SWAP1 LOG2 POP POP POP JUMP INVALID LOG2 PUSH6 0x627A7A723158 KECCAK256 PUSH23 0x50DEC04C22660721C00DB6C5ABA870669AAA986A95AD0E 0x5E CREATE2 0xF8 0xD8 0xF6 ADD 0xA8 PUSH19 0x64736F6C634300051000320000000000000000 "
    }
  }
}